:100000000C9448000C945D000C945D000C945D0011
:100010000C945D000C945D000C945D000C945D00EC
:100020000C945D000C945D000C945D000C945D00DC
:100030000C945D000C945D000C945D000C945D00CC
:100040000C945D000C945D000C945D000C945D00BC
:100050000C945D000C945D000C945D000C945D00AC
:100060000C945D000C945D000C945D000C945D009C
:100070000C945D000C945D000C945D000C945D008C
:100080000C945D000C945D000C945D000C945D007C
:1000900011241FBECFEFCDBFDFE3DEBF18E2A0E02B
:1000A000B8E2EAEFF1E002C005900D92A230B1078C
:1000B000D9F70E945F000C94F4000C940000CF93D9
:1000C000DF93CDB7DEB76097CDBFDEBF8EE0ECEE3D
:1000D000F1E4DE01139601900D928A95E1F7CE01CD
:1000E00003960E947D0089839A8380E090E0609669
:1000F000CDBFDEBFDF91CF910895CF93DF93CDB712
:10010000DEB72C97CDBFDEBF8B879C871F821886FA
:100110008B859C85FC018081918189839A838B8565
:100120009C85FC01808191818B839C8381E090E0A0
:100130008D839E833FC08D819E81880F991F2B8563
:100140003C85820F931FFC012081318189819A8136
:10015000281739076CF48D819E81880F991F2B8594
:100160003C85820F931FFC018081918189839A8352
:100170008D819E81880F991F2B853C85820F931F4F
:10018000FC01208131818B819C81821793076CF463
:100190008D819E81880F991F2B853C85820F931F2F
:1001A000FC01808191818B839C838D819E8101964E
:1001B0008D839E838D819E8107970CF4BCCF8091A7
:1001C000002890910128019719F48B819C8102C02D
:1001D00089819A8189879A8789859A852C96CDBF4E
:0C01E000DEBFDF91CF910895F894FFCFAF
:0E01EC0001000300040005000A002D000700BA
:0201FA00010002
:00000001FF
