:100000000C9489000C949E000C949E000C949E000D
:100010000C949E000C949E000C949E000C949E00E8
:100020000C949E000C949E000C949E000C949E00D8
:100030000C949E000C949E000C949E000C949E00C8
:100040000C949E000C949E000C949E000C949E00B8
:100050000C949E000C949E000C949E000C949E00A8
:100060000C949E000C949E000C949E000C949E0098
:100070000C949E000C949E000C949E000C949E0088
:100080000C949E000C949E000C949E000C949E0078
:1000900007634236B79BD8A71A39685618AEBAAB71
:1000A000558C1D3CB7CC5763BD6DEDFD753EF61705
:1000B0007231BF000000803F08000000BE9224495A
:1000C000123EABAAAA2ABECDCCCC4C3E000000808A
:1000D000BEABAAAAAA3E00000000BF000000803FFD
:1000E0000000000000084178D3BB4387D1133D19BD
:1000F0000E3CC3BD4282AD2B3E68EC8276BED98FEA
:10010000E1A93E4C80EFFFBE01C4FF7F3F0000002D
:10011000000011241FBECFEFCDBFDFE3DEBF18E22A
:10012000A0E0B8E2EAE6FBE002C005900D92A43040
:10013000B107D9F70E945A010C949F050C94000056
:10014000EF92FF920F931F93CF93DF93CDB7DEB75C
:100150002897CDBFDEBF6B837C838D839E834F83C7
:1001600058878F819885092E000CAA0BBB0BBC0108
:10017000CD010E942103DC01CB019C01AD0160E0B7
:1001800070E080E090E40E941A04DC01CB012B8136
:100190003C814D815E81BC01CD010E94AD03DC013B
:1001A000CB017C018D018091002890910128A091C4
:1001B0000228B09103289C01AD01C801B7010E943B
:1001C0007702DC01CB01BC01CD010E94E902DC0118
:1001D000CB0189839A8389819A812896CDBFDEBF1E
:1001E000DF91CF911F910F91FF90EF900895CF92E3
:1001F000DF92EF92FF920F931F93CF93DF93CDB7D0
:10020000DEB72897CDBFDEBF8D839E836F8378874F
:100210008D819E81092E000CAA0BBB0BBC01CD0168
:100220000E9421037B018C0180910028909101287C
:10023000A0910228B09103289C01AD01C801B7012B
:100240000E94AD03DC01CB016C017D018F8198859B
:10025000092E000CAA0BBB0BBC01CD010E9421038F
:10026000DC01CB019C01AD0160E070E080E090E436
:100270000E941A04DC01CB019C01AD01C701B6014B
:100280000E947702DC01CB0189839A83AB83BC8314
:1002900089819A81AB81BC81BC01CD012896CDBFFB
:1002A000DEBFDF91CF911F910F91FF90EF90DF9014
:1002B000CF900895CF93DF93CDB7DEB7C259D10960
:1002C000CDBFDEBF88E2E2E4FBE4DE0117960190D9
:1002D0000D928A95E1F78EE090E08B839C8380E11C
:1002E00090E08D839E8319821A8286C089819A81CB
:1002F000880F991F880F991F9E012F5F3F4F820F14
:10030000931F0696FC0180819181A281B3812B818C
:100310003C81A901BC01CD010E94A000AC018981F2
:100320009A81880F991F9E012F5F3F4F820F931F65
:100330008E96FC014083518389819A81880F991F91
:100340009E012F5F3F4F820F931F8E96FC0180818D
:1003500091812D813E81B9010E94F700DC01CB0122
:10036000AE014D5B5F4F29813A81220F331F220F6F
:10037000331F240F351FF90180839183A283B38338
:1003800089819A81880F991F880F991F9E012F5F7D
:100390003F4F820F931F0696FC0180819181A281BD
:1003A000B381AE014D5B5F4F29813A81220F331F2C
:1003B000220F331F240F351FF90120813181428123
:1003C0005381BC01CD010E940A02DC01CB01AE01C8
:1003D00045595F4F29813A81220F331F220F331F66
:1003E000240F351FF90180839183A283B383898110
:1003F0009A81019689839A8389819A810A970CF45C
:1004000075CF80E090E0CE56DF4FCDBFDEBFDF91ED
:10041000CF9108955058BB27AA270E9422020C941E
:1004200073030E94650338F00E946C0320F039F4D6
:100430009F3F19F426F40C9462030EF4E095E7FB59
:100440000C945C03E92F0E94840358F3BA176207E7
:1004500073078407950720F079F4A6F50C94A6039A
:100460000EF4E0950B2EBA2FA02D0B01B9019001CF
:100470000C01CA01A0011124FF27591B99F0593F13
:1004800050F4503E68F11A16F040A22F232F342F5B
:100490004427585FF3CF469537952795A795F040A9
:1004A0005395C9F77EF41F16BA0B620B730B840BBE
:1004B000BAF09150A1F0FF0FBB1F661F771F881F76
:1004C000C2F70EC0BA0F621F731F841F48F48795CE
:1004D00077956795B795F7959E3F08F0B0CF9395C0
:1004E000880F08F09927EE0F9795879508950E9439
:1004F0008B020C9473030E946C0358F00E946503F6
:1005000040F029F45F3F29F00C945C0351110C94E6
:10051000A7030C9462030E94840368F39923B1F348
:10052000552391F3951B550BBB27AA276217730719
:10053000840738F09F5F5F4F220F331F441FAA1FAD
:10054000A9F335D00E2E3AF0E0E832D09150504069
:10055000E695001CCAF72BD0FE2F29D0660F771F17
:10056000881FBB1F261737074807AB07B0E809F0FD
:10057000BB0B802DBF01FF2793585F4F3AF09E3F82
:10058000510578F00C945C030C94A7035F3FE4F3EF
:10059000983ED4F3869577956795B795F7959F5FC5
:1005A000C9F7880F911D9695879597F90895E1E011
:1005B000660F771F881FBB1F621773078407BA0770
:1005C00020F0621B730B840BBA0BEE1F88F7E095CB
:1005D00008950E94F0026894B1110C94A703089545
:1005E0000E948C0388F09F5798F0B92F9927B75134
:1005F000B0F0E1F0660F771F881F991F1AF0BA95C7
:10060000C9F714C0B13091F00E94A603B1E008957B
:100610000C94A603672F782F8827B85F39F0B93F6D
:10062000CCF3869577956795B395D9F73EF4909579
:100630008095709561957F4F8F4F9F4F0895E894F7
:1006400009C097FB3EF490958095709561957F4F1A
:100650008F4F9F4F9923A9F0F92F96E9BB279395C8
:10066000F695879577956795B795F111F8CFFAF4D8
:10067000BB0F11F460FF1BC06F5F7F4F8F4F9F4F09
:1006800016C0882311F096E911C0772321F09EE867
:10069000872F762F05C0662371F096E8862F70E0CD
:1006A00060E02AF09A95660F771F881FDAF7880FA7
:1006B0009695879597F9089597F99F6780E870E078
:1006C00060E008959FEF80EC089500240A941616C8
:1006D000170618060906089500240A941216130630
:1006E000140605060895092E0394000C11F48823BE
:1006F00052F0BB0F40F4BF2B11F460FF04C06F5FDA
:100700007F4F8F4F9F4F089557FD9058440F551FAF
:1007100059F05F3F71F04795880F97FB991F61F083
:100720009F3F79F087950895121613061406551FFA
:10073000F2CF4695F1DF08C0161617061806991F66
:10074000F1CF86957105610508940895E894BB275B
:1007500066277727CB0197F908950E94C0030C9470
:1007600073030E94650338F00E946C0320F0952308
:1007700011F00C945C030C94620311240C94A703F5
:100780000E94840370F3959FC1F3950F50E0551FAD
:10079000629FF001729FBB27F00DB11D639FAA27D6
:1007A000F00DB11DAA1F649F6627B00DA11D661F25
:1007B000829F2227B00DA11D621F739FB00DA11D46
:1007C000621F839FA00D611D221F749F3327A00D00
:1007D000611D231F849F600D211D822F762F6A2F9C
:1007E00011249F5750409AF0F1F088234AF0EE0F01
:1007F000FF1FBB1F661F771F881F91505040A9F72E
:100800009E3F510580F00C945C030C94A7035F3F5E
:10081000E4F3983ED4F3869577956795B795F79569
:10082000E7959F5FC1F7FE2B880F911D96958795E1
:1008300097F90895FA01EE0FFF1F30962105310553
:10084000A1F16115710561F48038BFE39B0749F19F
:1008500068949038810561F08038BFEF9B0741F0C4
:1008600099234AF5FF3FE1053105210519F1E89487
:100870000894E795D901AA2329F4AB2FBE2FF85F7E
:10088000D0F310C0FF5F70F4A695E0F7F73950F091
:1008900019F0FF3A38F49F779F930DD00F9007FC23
:1008A0009058089546F00C94620360E070E080E890
:1008B0009FE308954FE79F775F934F933F932F9365
:1008C0000E9415052F913F914F915F910E94AD03BA
:1008D0000C94720429F416F00C945C030C94A60397
:1008E0000C9462030E948C03A8F39638A0F707F8D3
:1008F0000F92E8942BE33AEA48EB5FE70E94C303C8
:100900000F920F920F924DB75EB70F920E945D0546
:10091000E0E9F0E00E94A4044F915F91EF91FF9114
:10092000E595EE1FFF1F49F0FE57E0684427EE0FE4
:10093000441FFA95E1F74195550B0E94D7040F909B
:1009400007FE0C94CB040895DF93CF931F930F936E
:10095000FF92EF92DF927B018C01689406C0DA2E41
:10096000EF010E94C003FE01E894A5912591359105
:1009700045915591A6F3EF010E942202FE019701D5
:10098000A801DA9469F7DF90EF90FF900F911F9123
:10099000CF91DF9108959B01AC0160E070E080E8A9
:1009A0009FE30C9477020C945C030C9491050E94D5
:1009B0008C03D8F39923C9F3940F511DA3F39150DD
:1009C000504094F059F0882332F0660F771F881F4B
:1009D00091505040C1F79E3F51052CF7880F911D53
:1009E0009695879597F908955F3FACF0983E9CF0F7
:1009F000BB27869577956795B79508F4B160939571
:100A0000C1F7BB0F58F711F460FFE8CF6F5F7F4F5E
:100A10008F4F9F4FE3CF0C94A70316F00C949105D2
:100A20000C94620368940C945C030E948C03A8F3FA
:100A30009923C1F3AEF3DF93CF931F930F93FF92EC
:100A4000C92FDD2788232AF02197660F771F881F7B
:100A5000DAF720E030E040E85FEB9FE3883920F0F0
:100A6000803E38F021968F770E940B02E8EBF0E091
:100A700004C00E940B02E5EEF0E00E94A4048B018A
:100A8000BE01EC01FB2E6F5771097595771F880B1E
:100A9000990B0E94210328E132E741E35FE30E94C2
:100AA000C003AF2D9801AE01FF900F911F91CF9120
:100AB000DF910E9422020C947303FA01DC01AA0F59
:100AC000BB1F9B01AC01BF5728F4222733274427C3
:100AD000507820C0B75190F4AB2F0024469537953D
:100AE0002795011CA395D2F3002071F0220F331F2C
:100AF000441FB395DAF30ED00C940A0261307105ED
:100B0000A0E88A07B94630F49B01AC016627772735
:100B100088279078309621F0208331834283538355
:100B200008959F3F31F0915020F487957795679510
:100B3000B795880F911D9695879597F90895F89424
:020B4000FFCFE5
:100B42009A99993E9A99193F6666663F9A99993F92
:100B52000000C03F6666E63F666606400000204031
:080B6200CDCC2C400000404006
:040B6A00333353408E
:00000001FF
